:030000000215A244
:0C15A200787FE4F6D8FD7581660215E93B
:1017F900496E69742066696E6973680041753D00B8
:0818090056313D0056323D004E
:1016900002370000040800000000040C00000000F5
:1016A000043000000000103F0000000000000000B7
:1016B000000000000000000010100000000000000A
:1016C00000000000000000000000102000000000EA
:1016D00000000000000000000000000003340000D3
:0B16E0003F0339000010033C00002015
:101447001213947BFF7A1779F97D027C00E4FFFE83
:1014570012162E121748121824C2851217A3E41267
:101467000D94E4FBFA79307841120CF7120DD28F04
:101477000B8E0A8D098C087F4B7E00121811D285BE
:101487001217A38F0F8E0E8D0D8C0CE4120D94E4A2
:10149700FBFA797A7844120BEEC004C005C006C087
:1014A70007AF0BAE0AAD09AC08E4120D94A804A966
:1014B70005AA06AB07D007D006D005D004120CF753
:1014C700120DD28F338E328D318C30AF0FAE0EAD01
:1014D7000DAC0C1210C5AF0BAE0AAD09AC08121259
:0F14E7002EAF33AE32AD31AC30120F5C02146059
:100F5C008F528E518D508C4FE47B0AFAF9F8120E99
:100F6C00BCEB2430F526E47B0AFAF9F8AF52AE510B
:100F7C00AD50AC4F120EBCC3E5529BFFE5519AFE2F
:100F8C00E55099FDE54F98FCE47B64FAF9F8120EF4
:100F9C00BCAC00AD01AE02AF03E47B0AFAF9F81267
:100FAC000EBCEF2430F525E47B64FAF9F8AF52AEB1
:100FBC0051AD50AC4F120EBCC3E5529BFFE5519A9C
:100FCC00FEE55099FDE54F98FCE47BE87A03F9F8CF
:100FDC00120EBCAC00AD01AE02AF03E47B64FAF9B7
:100FEC00F8120EBCEF2430F524E47BE87A03F9F810
:100FFC00AF52AE51AD50AC4F120EBCC3E5529BFF7D
:10100C00E5519AFEE55099FDE54F98FCE47B107A8A
:10101C0027F9F8120EBCAC00AD01AE02AF03E47BB5
:10102C00E87A03F9F8120EBCEF2430F522E47B10B9
:10103C007A27F9F8AF52AE51AD50AC4F120EBCC37B
:10104C00E5529BFFE5519AFEE55099FDE54F98FC62
:10105C007BA07A8679017800120EBCAC00AD01AE93
:10106C0002AF03E47B107A27F9F8120EBCEF2430A0
:10107C00F52175232E7BA07A8679017800AF52AECC
:10108C0051AD50AC4F120EBCEC4D4E4F6007EF24DF
:10109C0030F52080037520307BFF7A1879057D03AD
:1010AC007C00E4FFFE12162EAB3CAA3DA93E7D034C
:0910BC007C007F067E0002162E66
:10122E008F528E518D508C4FE47B0AFAF9F8120EC4
:10123E00BCEB2430F545E47B0AFAF9F8AF52AE5117
:10124E00AD50AC4F120EBCC3E5529BFFE5519AFE5A
:10125E00E55099FDE54F98FCE47B64FAF9F8120E1F
:10126E00BCAC00AD01AE02AF03E47B0AFAF9F81292
:10127E000EBCEF2430F544E47B64FAF9F8AF52AEBD
:10128E0051AD50AC4F120EBCC3E5529BFFE5519AC7
:10129E00FEE55099FDE54F98FCE47BE87A03F9F8FA
:1012AE00120EBCAC00AD01AE02AF03E47B64FAF9E2
:1012BE00F8120EBCEF2430F543E47BE87A03F9F81C
:1012CE00AF52AE51AD50AC4F120EBCC3E5529BFFA8
:1012DE00E5519AFEE55099FDE54F98FCE47B107AB6
:1012EE0027F9F8120EBCAC00AD01AE02AF03E47BE1
:1012FE00E87A03F9F8120EBCEF2430F542E47B10C5
:10130E007A27F9F8AF52AE51AD50AC4F120EBCC3A6
:10131E00E5529BFFE5519AFEE55099FDE54F98FC8D
:10132E007BA07A8679017800120EBCAC00AD01AEBE
:10133E0002AF03E47B107A27F9F8120EBCEF2430CB
:10134E00F54175402E7BA07A8679017800AF52AEBA
:10135E0051AD50AC4F120EBCEC4D4E4F6007EF240A
:10136E0030F53F8003753F307BFF7A187909E4FD35
:10137E00FC7F01FE12162EAB34AA35A936E4FDFC15
:06138E007F06FE02162E90
:1010C5008F528E518D508C4FE47B0AFAF9F8120E2F
:1010D500BCEB2430F516E47B0AFAF9F8AF52AE51B1
:1010E500AD50AC4F120EBCC3E5529BFFE5519AFEC5
:1010F500E55099FDE54F98FCE47B64FAF9F8120E8A
:10110500BCAC00AD01AE02AF03E47B0AFAF9F812FC
:101115000EBCEF2430F515E47B64FAF9F8AF52AE56
:1011250051AD50AC4F120EBCC3E5529BFFE5519A31
:10113500FEE55099FDE54F98FCE47BE87A03F9F864
:10114500120EBCAC00AD01AE02AF03E47B64FAF94C
:10115500F8120EBCEF2430F514E47BE87A03F9F8B5
:10116500AF52AE51AD50AC4F120EBCC3E5529BFF12
:10117500E5519AFEE55099FDE54F98FCE47B107A20
:1011850027F9F8120EBCAC00AD01AE02AF03E47B4B
:10119500E87A03F9F8120EBCEF2430F513E47B105E
:1011A5007A27F9F8AF52AE51AD50AC4F120EBCC311
:1011B500E5529BFFE5519AFEE55099FDE54F98FCF8
:1011C5007BA07A8679017800120EBCAC00AD01AE29
:1011D50002AF03E47B107A27F9F8120EBCEF243036
:1011E500F51275112E7BA07A8679017800AF52AE83
:1011F50051AD50AC4F120EBCEC4D4E4F6007EF2475
:1012050030F51080037510307BFF7A18790D7D015C
:101215007C00E4FFFE12162EAB39AA3AA93B7D01EC
:091225007C007F067E0002162EFB
:03000B00020003ED
:03000300B2833293
:10000E0000000000000000000000000000000000E2
:10001E0000000000000000000000000000000000D2
:10002E0000000000000000F80000000000000000CA
:10003E00000000000000000B0000000000000000A7
:10004E0000000000003C00000000003C000000002A
:10005E000000000000000000000000000000000092
:10006E000020002000E00038002000E000380020D2
:10007E000001000F00010001000F0001000100014E
:10008E00000000700088008800FC0088001000004E
:10009E000000000400080008001F00080007000010
:1000AE0000300048004800B000400030000800005A
:1000BE000000000800060001000600090009000605
:1000CE000000000000F000880048003000800000B2
:1000DE000000000700080009000A000600090008D9
:1000EE00000000000000003C0000000000000000C6
:1000FE0000000000000000000000000000000000F2
:10010E000000000000C000300008000400000000E5
:10011E000000000000070018002000400000000052
:10012E00000000000004001800E0000000000000C5
:10013E000000000000400030000F00000000000032
:10014E000000000000480030001C00300048000095
:10015E000000000000000000000000000000000091
:10016E00000000800080008000F000800080008091
:10017E00000000000000000000070000000000006A
:10018E000000000000000000000000000000000061
:10019E000000000000200018000400000000000015
:1001AE000000000000000000000000000000000041
:1001BE00000000000001000100010001000000002D
:1001CE000000000000000000000000000000000021
:1001DE00000000000000000C000000000000000005
:1001EE000000000000000080006000180004000005
:1001FE0000000008000600010000000000000000E2
:10020E00000000E0001000880008001000E0000070
:10021E0000000003000400080008000400030000B2
:10022E00000000000020001000F800000000000098
:10023E000000000000080008000F00080008000081
:10024E000000003000080008000800880070000060
:10025E000000000C000A0009000900080008000058
:10026E0000000030000800880088004800300000C0
:10027E000000000600080008000800090006000043
:10028E000000000000800060001000F80000000078
:10029E0000000003000200020002000F0002000036
:1002AE00000000F800880048004800480088000060
:1002BE000000000400080008000800080007000005
:1002CE00000000E000500048004800480090000088
:1002DE0000000007000800080008000800070000E2
:1002EE0000000008000800080088006800180000E0
:1002FE00000000000000000E0001000000000000E1
:10030E0000000070008800880088008800700000DF
:10031E0000000007000800080008000800070000A1
:10032E00000000F0000800080008000800F00000BF
:10033E000000000400090009000900050003000088
:10034E00000000000000006000000000000000003F
:10035E00000000000000000C000000000000000083
:10036E00000000000000006000000000000000001F
:10037E000000000000200018000400000000000033
:10038E00000000800040004000200020001000000F
:10039E000000000000010001000200020004000045
:1003AE0000000040004000400040004000400000BF
:1003BE000000000200020002000200020002000023
:1003CE0000000010002000200040004000800000CF
:1003DE000000000400020002000100010000000005
:1003EE0000000030000800080008008800700000BF
:1003FE00000000000000000A0001000000000000E4
:10040E0000F0000800C40024002400C4002800F0FE
:10041E00000F001000230024002400270014000306
:10042E000000000000E00018001800E000000000CE
:10043E00000800070001000100010001000700088C
:10044E00000000F800880088008800880070000016
:10045E000000000F00080008000800080007000058
:10046E00000000E00010000800080010002000004E
:10047E000000000300040008000800040002000051
:10048E00000000F8000800080008001000E000005E
:10049E000000000F00080008000800040003000020
:1004AE00000000F80088008800880088008800009E
:1004BE000000000F000800080008000800080000F7
:1004CE00000000F80088008800880088008800007E
:1004DE000000000F000000000000000000000000FF
:1004EE00000000E0001000080088009000A000004E
:1004FE0000000003000C00080008000800070000C0
:10050E00000000F8008000800080008000F80000ED
:10051E000000000F0000000000000000000F0000AF
:10052E00000000000008000800F8000800080000A5
:10053E000000000000080008000F0008000800007E
:10054E000000000000000008000800F80000000095
:10055E000000000600080008000800070000000068
:10056E00000000F8008000C000200010000800000D
:10057E000000000F0000000000010002000400084F
:10058E000000000000F80000000000000000000065
:10059E0000000000000F000800080008000800001E
:1005AE00000000F8003000C000C0003000F800006D
:1005BE000000000F0000000100000000000F00000E
:1005CE00000000F8003000C00000000000F800003D
:1005DE000000000F0000000000010006000F0000E8
:1005EE00000000E0001000080008001000E000000D
:1005FE0000000003000400080008000400030000CF
:10060E00000000F800880088008800880070000054
:10061E000000000F000000000000000000000000BD
:10062E00000000E0001000080008001000E00000CC
:10063E00000000030004000800180024002300003E
:10064E00000000F800880088008800880070000014
:10065E000000000F0000000000010006000800006E
:10066E0000000030004800880088000800100000DC
:10067E000000000400080008000800090006000041
:10068E00000000080008000800F800080008000834
:10069E000000000000000000000F0000000000003D
:1006AE00000000F8000000000000000000F800004C
:1006BE0000000007000800080008000800070000FE
:1006CE00001800600080000000000080006000182C
:1006DE00000000000001000E000E000100000000EE
:1006EE00001800E0000000E000C0000000C000386C
:1006FE0000000001000E00010001000600010000D4
:10070E0000000008003000C000C0003000080000EB
:10071E0000000008000600010001000600080000AD
:10072E0000000008003000C0000000C000300008CB
:10073E000000000000000000000F0000000000009C
:10074E00000000080008008800480028001800007B
:10075E000000000C000A0009000800080008000054
:10076E0000000000000000FC000400040000000077
:10077E00000000000000007F00400040000000006C
:10078E00000000040018006000800000000000005F
:10079E00000000000000000000010006000800003C
:1007AE00000000000004000400FC00000000000037
:1007BE000000000000400040007F0000000000002C
:1007CE00000000800060001800180060008000002B
:1007DE000000000100000000000000000001000009
:1007EE0000000000000000000000000000000000FB
:1007FE0000200020002000200020002000200020EB
:10080E0000000000000000040004000800000000CA
:10081E0000000000000000000000000000000000CA
:10082E0000000040002000200020002000C000003A
:10083E00000000060009000900090005000F00086D
:10084E00000000FC004000200020002000C000003E
:10085E000000000F00040008000800080007000058
:10086E00000000C0002000200020002000400000FA
:10087E00000000070008000800080008000400003F
:10088E00000000C0002000200020004000FC0000FE
:10089E00000000070008000800080004000F000018
:1008AE00000000C0002000200020002000C000003A
:1008BE0000000007000900090009000900050000FA
:1008CE0000000020002000F8002400240024000076
:1008DE00000000000000000F0000000000000000FB
:1008EE00000000C0002000200020004000E00000BA
:1008FE00000000270048004800480044003F000068
:10090E00000000FC004000200020002000C000007D
:10091E000000000F0000000000000000000F0000AB
:10092E00000000000020002000E400000000000095
:10093E000000000800080008000F0008000800086A
:10094E00000000000020002000E400000000000075
:10095E000000004000400040003F0000000000008A
:10096E00000000FC0000008000400020000000009D
:10097E000000000F0001000100020004000800004A
:10098E00000000000004000400FC00000000000055
:10099E000000000800080008000F0008000800080A
:1009AE00000000E00020002000C00020002000C059
:1009BE000000000F00000000000F00000000000FFC
:1009CE00000000E0004000200020002000C00000D9
:1009DE000000000F0000000000000000000F0000EB
:1009EE00000000C0002000200020002000C00000F9
:1009FE0000000007000800080008000800070000BB
:100A0E00000000E0004000200020002000C0000098
:100A1E000000007F00040008000800080007000026
:100A2E00000000C0002000200020004000E0000078
:100A3E00000000070008000800080004007F000006
:100A4E000000000000E00040002000200020000018
:100A5E0000000000000F0000000000000000000079
:100A6E00000000C0002000200020002000400000F8
:100A7E00000000040009000900090009000600003A
:100A8E0000000000002000F80020002000200000E0
:100A9E000000000000000007000800080008000029
:100AAE00000000E0000000000000000000E0000078
:100ABE00000000070008000800080004000F0000F6
:100ACE000000006000800000000000800060000058
:100ADE00000000000003000C000C000300000000EA
:100AEE000060008000000080008000000080006038
:100AFE0000000003000C00030003000C00030000C4
:100B0E000000002000400080008000400020000017
:100B1E0000000008000400030003000400080000A9
:100B2E0000000060008000000000008000600000F7
:100B3E00000000400043003C000C000300000000D9
:100B4E00000000200020002000A000600020000017
:100B5E000000000C000A0009000800080008000050
:100B6E0000000000000000F8000400040004000073
:100B7E00000000010001003E004000400040000067
:100B8E0000000000000000FC00000000000000005B
:100B9E00000000000000007F0000000000000000C8
:100BAE00000000040004000400F800000000000033
:100BBE000000004000400040003E00010001000027
:100BCE000000000000400040008000800000000097
:100BDE000000000000000000000000000000000007
:101811007D01EDC39FE49E50097C010CEC70FC0D31
:0218210080F055
:0118230022A2
:0C184000C2957F327E00121811D2952252
:0A184C00C290D2941217D8D2902255
:03183300E4FFFED1
:0A183600C290C2941217D8D290227B
:10139400D290D2911218407FAE7E001218361218E5
:1013A400337F107E001218367F407E001218367F7D
:1013B400A17E001218367FC87E001218367FA67EE2
:1013C400001218367FA87E001218367F3F7E001266
:1013D40018367FD37E001218361218337FD57E005C
:1013E4001218367F807E001218367FD97E001218BC
:1013F400367FF17E001218367FDA7E001218367FAF
:10140400127E001218367FDB7E00121836E4FFFECF
:101414001218367F207E00121836E4FFFE121836AA
:101424007F8D7E001218367F147E001218367FA43A
:101434007E001218367FA67E001218367FAF7E001B
:0314440002183655
:101748007F227E00121836E4FFFE1218367F077ECD
:10175800001218367F217E00121836E4FFFE121898
:10176800367F7F7E00121836E4F54FF550E4F551C8
:10177800F552E4FFFE12184C0552E552700205516D
:10178800C39480E551940040E90550E55070020586
:0A1798004FC39408E54F940040D3BE
:0117A2002224
:1016EC007F227E00121836E4FFFE1218367F077E2A
:1016FC00001218367F217E00121836E4FFFE1218F5
:10170C00367F7F7E00121836E4F563F564E4F565E8
:10171C00F5667FFF7E0012184C0566E566700205C3
:10172C0065C39480E565940040E80564E564700247
:0B173C000563C39408E563940040D2ED
:01174700227F
:0A14F6008E5C8F5D8C5E8D5F8B6055
:101500007F227E00121836E55F25E0FFE55E33FEA0
:10151000121836E55F25E0FFE55E33FEEF2401FF9C
:10152000E43EFE1218367F217E00121836AE5CE5CE
:101530005D7803C333CE33CED8F9FF121836AE5CD4
:10154000E55D7803C333CE33CED8F92407FFE43EFC
:10155000FE121836E4F561F562AF60EF3395E0FEF8
:10156000EF7805C333CE33CED8F9240EF58274FC60
:101570003EF583E56225E0FFE56133FEE5822FF568
:1015800082E5833EF583E493FE740193FF12184CC9
:101590000562E56270020561C39410E56194004044
:0115A000B892
:0115A1002227
:0E162E008E538F548C558D568B578A58895980
:10163C00E4F55AF55BAB57AA58A959855B82855AD4
:10164C0083120E53FB603CE5542401FFE43553FE3A
:10165C00D3EF9410EE9400400D0556E5567002053C
:10166C0055E4F553F5540554E554AE537002055347
:10167C0014FFAD56AC551214F6055BE55B70B60560
:03168C005A80B2CF
:01168F002238
:1017D800E4FEEEC39408748094805014A806EF08C1
:1017E8008002C333D8FC339292C291D2910E80E228
:0117F80022CE
:0F182400438902758CE7758AE775A882D28C22FA
:1017A300C280D2807F327E00121811C2803081FD48
:1017B300D282AFA0E4FCFDFEC282120D947B007ABC
:1017C3007E79E57848120BEEE4FBFA7980784312D0
:0517D3000CF7020DD22D
:100BEE00EC4D6011E8497017ED33EC3304600DE401
:100BFE00FCFFFEFD22E933E8330470F8020E3E12CC
:100C0E000E0958046009E4CC2481500628500902CC
:100C1E000E48284003020E45C0E0EB4A7044B980EE
:100C2E0006D0E0FB020E34EF4E701CBD8008EBFFC9
:100C3E00EAFEE9FD80EBE98DF0A4FEE5F0020CD7AB
:100C4E00E9CDF9EAFEEBFFEF89F0A4FCE5F0CE89E1
:100C5E00F0A42EFFE435F0CD89F0A42DFEE435F09E
:100C6E008067EF4E7005BD80D780C3EF8BF0A4ACCC
:100C7E00F0EE8BF0A42CFCE435F0F8EF8AF0A42C07
:100C8E00E5F038FCE433CB8DF0A42CFCE5F03BF81A
:100C9E00EE8AF0A42CFCE5F038F8E433CF89F0A40A
:100CAE002CFCE5F038CF3400CE89F0A42FFFE5F010
:100CBE003EFEE433C98DF0A42EFEE5F039CD8AF068
:100CCE00A42FFFE5F03EFEE43DFD33D0E0FB5007E0
:100CDE000BBB000F020E48EC2CFCEF33FFEE33FE85
:060CEE00ED33FD020E20B3
:100CF400020E48EC5D046005E859047003020E3EE0
:100D0400120E09580460F6EC4860F2EC7004FDFE23
:100D1400FF22C860DB2481C85009C39860025006D2
:100D2400020E459850CAF582E9294B4A7005AB82F8
:100D3400020E3475F0007C1A7880C3EF9BEE9AEDB6
:100D440099400DC3EF9BFFEE9AFEED99FDE842F04A
:100D5400DC23ACF0D0E0FFD0E0FED0E0FDAB82209D
:100D6400E7101BEB60BAEC2CFCEF33FFEE33FEED27
:100D740033FD020E20E803F830E705C0F075F000FB
:100D8400EF2FFFEE33FEED33FD40B830E7C280AA0B
:100D940075F020800E75F010800575F0087D007EDA
:100DA400007F003392D530D503120F4EEC33401040
:100DB400EF33FFEE33FEED33FDEC33FCD5F0ED22E3
:0E0DC400E5F0247EA2D513CC92E7CDCEFF221F
:100DD200EDD2E7CD33EC3392D524814006E4FFFE19
:100DE200FDFC22FCE4CFCECDCC24E0501174FF8078
:100DF200EDC3CC13CCCD13CDCE13CECF13CF047015
:070E0200F030D5DE020F4EB7
:100E0900E9D2E7C933E833F892D5EDD2E7CD33EC2F
:070E190033FC5002B2D522A8
:100E2000EC30E7100FBF000C0EBE00080DBD000433
:100E30000BEB6014A2D5EB13FCED92E7FD2274FFDF
:100E4000FCFDFEFF22E480F8A2D574FF13FC7D8038
:030E5000E480EF4C
:1015AE00021447E493A3F8E493A34003F68001F2F8
:1015BE0008DFF48029E493A3F85407240CC8C3333E
:1015CE00C4540F4420C8834004F456800146F6DF0D
:1015DE00E4800B0102040810204080901690E47EF7
:1015EE00019360BCA3FF543F30E509541FFEE49302
:1015FE00A360010ECF54C025E060A840B8E493A3C9
:10160E00FAE493A3F8E493A3C8C582C8CAC583CAF3
:10161E00F0A3C8C582C8CAC583CADFE9DEE780BEAB
:0116EB0000FE
:100E5300BB010CE58229F582E5833AF583E0225054
:100E630006E92582F8E622BBFE06E92582F8E2229E
:0D0E7300E58229F582E5833AF583E49322B8
:100E800075F008758200EF2FFFEE33FECD33CDCC29
:100E900033CCC58233C5829BED9AEC99E5829840AC
:100EA0000CF582EE9BFEED9AFDEC99FC0FD5F0D689
:100EB000E4CEFBE4CDFAE4CCF9A88222B800C1B9B3
:100EC0000059BA002DEC8BF084CFCECDFCE5F0CBF1
:100ED000F97818EF2FFFEE33FEED33FDEC33FCEB2A
:100EE00033FB10D703994004EB99FB0FD8E5E4F9E5
:100EF000FA227818EF2FFFEE33FEED33FDEC33FCD2
:100F0000C933C910D7059BE99A4007EC9BFCE99AC5
:100F1000F90FD8E0E4C9FAE4CCFB2275F010EF2F0A
:100F2000FFEE33FEED33FDCC33CCC833C810D7070A
:100F30009BEC9AE899400AED9BFDEC9AFCE899F845
:0E0F40000FD5F0DAE4CDFBE4CCFAE4C8F922D8
:0E0F4E00C3E49FFFE49EFEE49DFDE49CFC22B4
:00000001FF
